{"abi":[{"type":"constructor","inputs":[{"name":"_usdc","type":"address","internalType":"address"},{"name":"_protocol","type":"address","internalType":"address"}],"stateMutability":"nonpayable"},{"type":"function","name":"contractBalance","inputs":[],"outputs":[{"name":"","type":"uint256","internalType":"uint256"}],"stateMutability":"view"},{"type":"function","name":"createEscrow","inputs":[{"name":"escrowId","type":"bytes32","internalType":"bytes32"},{"name":"auctionId","type":"bytes32","internalType":"bytes32"},{"name":"payee","type":"address","internalType":"address"},{"name":"amount","type":"uint256","internalType":"uint256"},{"name":"commission","type":"uint256","internalType":"uint256"}],"outputs":[],"stateMutability":"nonpayable"},{"type":"function","name":"escrows","inputs":[{"name":"","type":"bytes32","internalType":"bytes32"}],"outputs":[{"name":"payer","type":"address","internalType":"address"},{"name":"payee","type":"address","internalType":"address"},{"name":"amount","type":"uint256","internalType":"uint256"},{"name":"commission","type":"uint256","internalType":"uint256"},{"name":"status","type":"uint8","internalType":"enum AXONEscrow.Status"},{"name":"auctionId","type":"bytes32","internalType":"bytes32"},{"name":"createdAt","type":"uint256","internalType":"uint256"}],"stateMutability":"view"},{"type":"function","name":"getEscrow","inputs":[{"name":"escrowId","type":"bytes32","internalType":"bytes32"}],"outputs":[{"name":"","type":"tuple","internalType":"struct AXONEscrow.Escrow","components":[{"name":"payer","type":"address","internalType":"address"},{"name":"payee","type":"address","internalType":"address"},{"name":"amount","type":"uint256","internalType":"uint256"},{"name":"commission","type":"uint256","internalType":"uint256"},{"name":"status","type":"uint8","internalType":"enum AXONEscrow.Status"},{"name":"auctionId","type":"bytes32","internalType":"bytes32"},{"name":"createdAt","type":"uint256","internalType":"uint256"}]}],"stateMutability":"view"},{"type":"function","name":"pause","inputs":[],"outputs":[],"stateMutability":"nonpayable"},{"type":"function","name":"paused","inputs":[],"outputs":[{"name":"","type":"bool","internalType":"bool"}],"stateMutability":"view"},{"type":"function","name":"protocol","inputs":[],"outputs":[{"name":"","type":"address","internalType":"address"}],"stateMutability":"view"},{"type":"function","name":"refund","inputs":[{"name":"escrowId","type":"bytes32","internalType":"bytes32"}],"outputs":[],"stateMutability":"nonpayable"},{"type":"function","name":"release","inputs":[{"name":"escrowId","type":"bytes32","internalType":"bytes32"}],"outputs":[],"stateMutability":"nonpayable"},{"type":"function","name":"stats","inputs":[],"outputs":[{"name":"locked","type":"uint256","internalType":"uint256"},{"name":"released","type":"uint256","internalType":"uint256"},{"name":"commissions","type":"uint256","internalType":"uint256"},{"name":"refunded","type":"uint256","internalType":"uint256"}],"stateMutability":"view"},{"type":"function","name":"totalCommissions","inputs":[],"outputs":[{"name":"","type":"uint256","internalType":"uint256"}],"stateMutability":"view"},{"type":"function","name":"totalLocked","inputs":[],"outputs":[{"name":"","type":"uint256","internalType":"uint256"}],"stateMutability":"view"},{"type":"function","name":"totalRefunded","inputs":[],"outputs":[{"name":"","type":"uint256","internalType":"uint256"}],"stateMutability":"view"},{"type":"function","name":"totalReleased","inputs":[],"outputs":[{"name":"","type":"uint256","internalType":"uint256"}],"stateMutability":"view"},{"type":"function","name":"unpause","inputs":[],"outputs":[],"stateMutability":"nonpayable"},{"type":"function","name":"usdc","inputs":[],"outputs":[{"name":"","type":"address","internalType":"contract IERC20"}],"stateMutability":"view"},{"type":"event","name":"EscrowCreated","inputs":[{"name":"escrowId","type":"bytes32","indexed":true,"internalType":"bytes32"},{"name":"auctionId","type":"bytes32","indexed":true,"internalType":"bytes32"},{"name":"payer","type":"address","indexed":true,"internalType":"address"},{"name":"payee","type":"address","indexed":false,"internalType":"address"},{"name":"amount","type":"uint256","indexed":false,"internalType":"uint256"},{"name":"commission","type":"uint256","indexed":false,"internalType":"uint256"}],"anonymous":false},{"type":"event","name":"EscrowRefunded","inputs":[{"name":"escrowId","type":"bytes32","indexed":true,"internalType":"bytes32"},{"name":"payer","type":"address","indexed":true,"internalType":"address"},{"name":"amount","type":"uint256","indexed":false,"internalType":"uint256"}],"anonymous":false},{"type":"event","name":"EscrowReleased","inputs":[{"name":"escrowId","type":"bytes32","indexed":true,"internalType":"bytes32"},{"name":"payee","type":"address","indexed":true,"internalType":"address"},{"name":"net","type":"uint256","indexed":false,"internalType":"uint256"},{"name":"commission","type":"uint256","indexed":false,"internalType":"uint256"}],"anonymous":false},{"type":"event","name":"Paused","inputs":[{"name":"by","type":"address","indexed":true,"internalType":"address"}],"anonymous":false},{"type":"event","name":"Unpaused","inputs":[{"name":"by","type":"address","indexed":true,"internalType":"address"}],"anonymous":false},{"type":"error","name":"AlreadySettled","inputs":[]},{"type":"error","name":"ContractPaused","inputs":[]},{"type":"error","name":"EscrowAlreadyExists","inputs":[]},{"type":"error","name":"EscrowNotFound","inputs":[]},{"type":"error","name":"InvalidAmount","inputs":[]},{"type":"error","name":"OnlyProtocol","inputs":[]},{"type":"error","name":"TransferFailed","inputs":[]}],"bytecode":{"object":"0x60c060405234801561000f575f5ffd5b50604051611de1380380611de1833981810160405281019061003191906101da565b5f73ffffffffffffffffffffffffffffffffffffffff168273ffffffffffffffffffffffffffffffffffffffff160361009f576040517f08c379a000000000000000000000000000000000000000000000000000000000815260040161009690610272565b60405180910390fd5b5f73ffffffffffffffffffffffffffffffffffffffff168173ffffffffffffffffffffffffffffffffffffffff160361010d576040517f08c379a0000000000000000000000000000000000000000000000000000000008152600401610104906102da565b60405180910390fd5b8173ffffffffffffffffffffffffffffffffffffffff1660808173ffffffffffffffffffffffffffffffffffffffff16815250508073ffffffffffffffffffffffffffffffffffffffff1660a08173ffffffffffffffffffffffffffffffffffffffff168152505050506102f8565b5f5ffd5b5f73ffffffffffffffffffffffffffffffffffffffff82169050919050565b5f6101a982610180565b9050919050565b6101b98161019f565b81146101c3575f5ffd5b50565b5f815190506101d4816101b0565b92915050565b5f5f604083850312156101f0576101ef61017c565b5b5f6101fd858286016101c6565b925050602061020e858286016101c6565b9150509250929050565b5f82825260208201905092915050565b7f7a65726f207573646300000000000000000000000000000000000000000000005f82015250565b5f61025c600983610218565b915061026782610228565b602082019050919050565b5f6020820190508181035f83015261028981610250565b9050919050565b7f7a65726f2070726f746f636f6c000000000000000000000000000000000000005f82015250565b5f6102c4600d83610218565b91506102cf82610290565b602082019050919050565b5f6020820190508181035f8301526102f1816102b8565b9050919050565b60805160a051611a8261035f5f395f81816107a20152818161089d01528181610bf401528181610d2b01528181611080015261120801525f818161044c0152818161077e01528181610ab801528181610bb801528181610f17015261116b0152611a825ff3fe608060405234801561000f575f5ffd5b50600436106100fe575f3560e01c80638456cb5911610095578063d80528ae11610064578063d80528ae14610254578063d908296214610275578063e33b7de314610293578063f023b811146102b1576100fe565b80638456cb59146101f05780638792e303146101fa5780638b7afe2e146102185780638ce7442614610236576100fe565b806356891412116100d1578063568914121461017c5780635c975abb1461019a57806367d42a8b146101b85780637249fbb6146101d4576100fe565b80630af7ed33146101025780632d83549c1461011e5780633e413bee146101545780633f4ba83a14610172575b5f5ffd5b61011c600480360381019061011791906114c1565b6102e1565b005b61013860048036038101906101339190611538565b6106f5565b60405161014b9796959493929190611603565b60405180910390f35b61015c61077c565b60405161016991906116cb565b60405180910390f35b61017a6107a0565b005b610184610883565b60405161019191906116e4565b60405180910390f35b6101a2610889565b6040516101af9190611717565b60405180910390f35b6101d260048036038101906101cd9190611538565b61089b565b005b6101ee60048036038101906101e99190611538565b610d29565b005b6101f861107e565b005b610202611162565b60405161020f91906116e4565b60405180910390f35b610220611168565b60405161022d91906116e4565b60405180910390f35b61023e611206565b60405161024b9190611730565b60405180910390f35b61025c61122a565b60405161026c9493929190611749565b60405180910390f35b61027d611248565b60405161028a91906116e4565b60405180910390f35b61029b61124e565b6040516102a891906116e4565b60405180910390f35b6102cb60048036038101906102c69190611538565b611254565b6040516102d89190611854565b60405180910390f35b60055f9054906101000a900460ff1615610327576040517fab35696f00000000000000000000000000000000000000000000000000000000815260040160405180910390fd5b5f5f5f8781526020019081526020015f206006015414610373576040517fed77877900000000000000000000000000000000000000000000000000000000815260040160405180910390fd5b5f82036103ac576040517f2c5211c600000000000000000000000000000000000000000000000000000000815260040160405180910390fd5b8181106103e5576040517f2c5211c600000000000000000000000000000000000000000000000000000000815260040160405180910390fd5b5f73ffffffffffffffffffffffffffffffffffffffff168373ffffffffffffffffffffffffffffffffffffffff160361044a576040517f2c5211c600000000000000000000000000000000000000000000000000000000815260040160405180910390fd5b7f000000000000000000000000000000000000000000000000000000000000000073ffffffffffffffffffffffffffffffffffffffff166323b872dd3330856040518463ffffffff1660e01b81526004016104a79392919061186d565b6020604051808303815f875af11580156104c3573d5f5f3e3d5ffd5b505050506040513d601f19601f820116820180604052508101906104e791906118cc565b61051d576040517f90b8ec1800000000000000000000000000000000000000000000000000000000815260040160405180910390fd5b6040518060e001604052803373ffffffffffffffffffffffffffffffffffffffff1681526020018473ffffffffffffffffffffffffffffffffffffffff1681526020018381526020018281526020015f600281111561057f5761057e611581565b5b8152602001858152602001428152505f5f8781526020019081526020015f205f820151815f015f6101000a81548173ffffffffffffffffffffffffffffffffffffffff021916908373ffffffffffffffffffffffffffffffffffffffff1602179055506020820151816001015f6101000a81548173ffffffffffffffffffffffffffffffffffffffff021916908373ffffffffffffffffffffffffffffffffffffffff16021790555060408201518160020155606082015181600301556080820151816004015f6101000a81548160ff0219169083600281111561066657610665611581565b5b021790555060a0820151816005015560c082015181600601559050508160015f8282546106939190611924565b925050819055503373ffffffffffffffffffffffffffffffffffffffff1684867f18e87bc4c311e3046ccf04333d87560b7a8627061b2d673cdc23c1f896c93f398686866040516106e693929190611957565b60405180910390a45050505050565b5f602052805f5260405f205f91509050805f015f9054906101000a900473ffffffffffffffffffffffffffffffffffffffff1690806001015f9054906101000a900473ffffffffffffffffffffffffffffffffffffffff1690806002015490806003015490806004015f9054906101000a900460ff16908060050154908060060154905087565b7f000000000000000000000000000000000000000000000000000000000000000081565b7f000000000000000000000000000000000000000000000000000000000000000073ffffffffffffffffffffffffffffffffffffffff163373ffffffffffffffffffffffffffffffffffffffff1614610825576040517fd35a97ab00000000000000000000000000000000000000000000000000000000815260040160405180910390fd5b5f60055f6101000a81548160ff0219169083151502179055503373ffffffffffffffffffffffffffffffffffffffff167f5db9ee0a495bf2e6ff9c91a7834c1ba4fdd244a5e8aa4e537bd38aeae4b073aa60405160405180910390a2565b60015481565b60055f9054906101000a900460ff1681565b7f000000000000000000000000000000000000000000000000000000000000000073ffffffffffffffffffffffffffffffffffffffff163373ffffffffffffffffffffffffffffffffffffffff1614610920576040517fd35a97ab00000000000000000000000000000000000000000000000000000000815260040160405180910390fd5b60055f9054906101000a900460ff1615610966576040517fab35696f00000000000000000000000000000000000000000000000000000000815260040160405180910390fd5b5f5f5f8381526020019081526020015f2090505f8160060154036109b6576040517ff1d80ab100000000000000000000000000000000000000000000000000000000815260040160405180910390fd5b5f60028111156109c9576109c8611581565b5b816004015f9054906101000a900460ff1660028111156109ec576109eb611581565b5b14610a23576040517f560ff90000000000000000000000000000000000000000000000000000000000815260040160405180910390fd5b6001816004015f6101000a81548160ff02191690836002811115610a4a57610a49611581565b5b02179055505f81600301548260020154610a64919061198c565b9050816002015460015f828254610a7b919061198c565b925050819055508060025f828254610a939190611924565b92505081905550816003015460035f828254610aaf9190611924565b925050819055507f000000000000000000000000000000000000000000000000000000000000000073ffffffffffffffffffffffffffffffffffffffff1663a9059cbb836001015f9054906101000a900473ffffffffffffffffffffffffffffffffffffffff16836040518363ffffffff1660e01b8152600401610b349291906119bf565b6020604051808303815f875af1158015610b50573d5f5f3e3d5ffd5b505050506040513d601f19601f82011682018060405250810190610b7491906118cc565b610baa576040517f90b8ec1800000000000000000000000000000000000000000000000000000000815260040160405180910390fd5b5f82600301541115610cac577f000000000000000000000000000000000000000000000000000000000000000073ffffffffffffffffffffffffffffffffffffffff1663a9059cbb7f000000000000000000000000000000000000000000000000000000000000000084600301546040518363ffffffff1660e01b8152600401610c359291906119bf565b6020604051808303815f875af1158015610c51573d5f5f3e3d5ffd5b505050506040513d601f19601f82011682018060405250810190610c7591906118cc565b610cab576040517f90b8ec1800000000000000000000000000000000000000000000000000000000815260040160405180910390fd5b5b816001015f9054906101000a900473ffffffffffffffffffffffffffffffffffffffff1673ffffffffffffffffffffffffffffffffffffffff16837f99450c840c88bca94a656610fcad5090621de4f47589c6d5844c291b64821063838560030154604051610d1c9291906119e6565b60405180910390a3505050565b7f000000000000000000000000000000000000000000000000000000000000000073ffffffffffffffffffffffffffffffffffffffff163373ffffffffffffffffffffffffffffffffffffffff1614610dae576040517fd35a97ab00000000000000000000000000000000000000000000000000000000815260040160405180910390fd5b60055f9054906101000a900460ff1615610df4576040517fab35696f00000000000000000000000000000000000000000000000000000000815260040160405180910390fd5b5f5f5f8381526020019081526020015f2090505f816006015403610e44576040517ff1d80ab100000000000000000000000000000000000000000000000000000000815260040160405180910390fd5b5f6002811115610e5757610e56611581565b5b816004015f9054906101000a900460ff166002811115610e7a57610e79611581565b5b14610eb1576040517f560ff90000000000000000000000000000000000000000000000000000000000815260040160405180910390fd5b6002816004015f6101000a81548160ff02191690836002811115610ed857610ed7611581565b5b02179055505f816002015490508060015f828254610ef6919061198c565b925050819055508060045f828254610f0e9190611924565b925050819055507f000000000000000000000000000000000000000000000000000000000000000073ffffffffffffffffffffffffffffffffffffffff1663a9059cbb835f015f9054906101000a900473ffffffffffffffffffffffffffffffffffffffff16836040518363ffffffff1660e01b8152600401610f929291906119bf565b6020604051808303815f875af1158015610fae573d5f5f3e3d5ffd5b505050506040513d601f19601f82011682018060405250810190610fd291906118cc565b611008576040517f90b8ec1800000000000000000000000000000000000000000000000000000000815260040160405180910390fd5b815f015f9054906101000a900473ffffffffffffffffffffffffffffffffffffffff1673ffffffffffffffffffffffffffffffffffffffff16837ffc31a7ddbe933aa6e67f3c98c183fbc87addd2b602fcfb10238d2f85cf0266178360405161107191906116e4565b60405180910390a3505050565b7f000000000000000000000000000000000000000000000000000000000000000073ffffffffffffffffffffffffffffffffffffffff163373ffffffffffffffffffffffffffffffffffffffff1614611103576040517fd35a97ab00000000000000000000000000000000000000000000000000000000815260040160405180910390fd5b600160055f6101000a81548160ff0219169083151502179055503373ffffffffffffffffffffffffffffffffffffffff167f62e78cea01bee320cd4e420270b5ea74000d11b0c9f74754ebdbfc544b05a25860405160405180910390a2565b60035481565b5f7f000000000000000000000000000000000000000000000000000000000000000073ffffffffffffffffffffffffffffffffffffffff166370a08231306040518263ffffffff1660e01b81526004016111c29190611730565b602060405180830381865afa1580156111dd573d5f5f3e3d5ffd5b505050506040513d601f19601f820116820180604052508101906112019190611a21565b905090565b7f000000000000000000000000000000000000000000000000000000000000000081565b5f5f5f5f600154600254600354600454935093509350935090919293565b60045481565b60025481565b61125c611389565b5f5f8381526020019081526020015f206040518060e00160405290815f82015f9054906101000a900473ffffffffffffffffffffffffffffffffffffffff1673ffffffffffffffffffffffffffffffffffffffff1673ffffffffffffffffffffffffffffffffffffffff168152602001600182015f9054906101000a900473ffffffffffffffffffffffffffffffffffffffff1673ffffffffffffffffffffffffffffffffffffffff1673ffffffffffffffffffffffffffffffffffffffff1681526020016002820154815260200160038201548152602001600482015f9054906101000a900460ff16600281111561135857611357611581565b5b600281111561136a57611369611581565b5b8152602001600582015481526020016006820154815250509050919050565b6040518060e001604052805f73ffffffffffffffffffffffffffffffffffffffff1681526020015f73ffffffffffffffffffffffffffffffffffffffff1681526020015f81526020015f81526020015f60028111156113eb576113ea611581565b5b81526020015f81526020015f81525090565b5f5ffd5b5f819050919050565b61141381611401565b811461141d575f5ffd5b50565b5f8135905061142e8161140a565b92915050565b5f73ffffffffffffffffffffffffffffffffffffffff82169050919050565b5f61145d82611434565b9050919050565b61146d81611453565b8114611477575f5ffd5b50565b5f8135905061148881611464565b92915050565b5f819050919050565b6114a08161148e565b81146114aa575f5ffd5b50565b5f813590506114bb81611497565b92915050565b5f5f5f5f5f60a086880312156114da576114d96113fd565b5b5f6114e788828901611420565b95505060206114f888828901611420565b94505060406115098882890161147a565b935050606061151a888289016114ad565b925050608061152b888289016114ad565b9150509295509295909350565b5f6020828403121561154d5761154c6113fd565b5b5f61155a84828501611420565b91505092915050565b61156c81611453565b82525050565b61157b8161148e565b82525050565b7f4e487b71000000000000000000000000000000000000000000000000000000005f52602160045260245ffd5b600381106115bf576115be611581565b5b50565b5f8190506115cf826115ae565b919050565b5f6115de826115c2565b9050919050565b6115ee816115d4565b82525050565b6115fd81611401565b82525050565b5f60e0820190506116165f83018a611563565b6116236020830189611563565b6116306040830188611572565b61163d6060830187611572565b61164a60808301866115e5565b61165760a08301856115f4565b61166460c0830184611572565b98975050505050505050565b5f819050919050565b5f61169361168e61168984611434565b611670565b611434565b9050919050565b5f6116a482611679565b9050919050565b5f6116b58261169a565b9050919050565b6116c5816116ab565b82525050565b5f6020820190506116de5f8301846116bc565b92915050565b5f6020820190506116f75f830184611572565b92915050565b5f8115159050919050565b611711816116fd565b82525050565b5f60208201905061172a5f830184611708565b92915050565b5f6020820190506117435f830184611563565b92915050565b5f60808201905061175c5f830187611572565b6117696020830186611572565b6117766040830185611572565b6117836060830184611572565b95945050505050565b61179581611453565b82525050565b6117a48161148e565b82525050565b6117b3816115d4565b82525050565b6117c281611401565b82525050565b60e082015f8201516117dc5f85018261178c565b5060208201516117ef602085018261178c565b506040820151611802604085018261179b565b506060820151611815606085018261179b565b50608082015161182860808501826117aa565b5060a082015161183b60a08501826117b9565b5060c082015161184e60c085018261179b565b50505050565b5f60e0820190506118675f8301846117c8565b92915050565b5f6060820190506118805f830186611563565b61188d6020830185611563565b61189a6040830184611572565b949350505050565b6118ab816116fd565b81146118b5575f5ffd5b50565b5f815190506118c6816118a2565b92915050565b5f602082840312156118e1576118e06113fd565b5b5f6118ee848285016118b8565b91505092915050565b7f4e487b71000000000000000000000000000000000000000000000000000000005f52601160045260245ffd5b5f61192e8261148e565b91506119398361148e565b9250828201905080821115611951576119506118f7565b5b92915050565b5f60608201905061196a5f830186611563565b6119776020830185611572565b6119846040830184611572565b949350505050565b5f6119968261148e565b91506119a18361148e565b92508282039050818111156119b9576119b86118f7565b5b92915050565b5f6040820190506119d25f830185611563565b6119df6020830184611572565b9392505050565b5f6040820190506119f95f830185611572565b611a066020830184611572565b9392505050565b5f81519050611a1b81611497565b92915050565b5f60208284031215611a3657611a356113fd565b5b5f611a4384828501611a0d565b9150509291505056fea2646970667358221220ab93cfefd9266bc27b61c223845ad79f18d9d53830b2f2d69a1ea851b4eca25864736f6c63430008210033","linkReferences":{}},"methodIdentifiers":{"contractBalance()":"8b7afe2e","createEscrow(bytes32,bytes32,address,uint256,uint256)":"0af7ed33","escrows(bytes32)":"2d83549c","getEscrow(bytes32)":"f023b811","pause()":"8456cb59","paused()":"5c975abb","protocol()":"8ce74426","refund(bytes32)":"7249fbb6","release(bytes32)":"67d42a8b","stats()":"d80528ae","totalCommissions()":"8792e303","totalLocked()":"56891412","totalRefunded()":"d9082962","totalReleased()":"e33b7de3","unpause()":"3f4ba83a","usdc()":"3e413bee"},"id":0}